{
  "contractName": "Steam",
  "abi": [
    {
      "inputs": [
        {
          "internalType": "uint256",
          "name": "STEAM_maxTokens",
          "type": "uint256"
        }
      ],
      "payable": false,
      "stateMutability": "nonpayable",
      "type": "constructor"
    },
    {
      "anonymous": false,
      "inputs": [
        {
          "indexed": true,
          "internalType": "address",
          "name": "owner",
          "type": "address"
        },
        {
          "indexed": true,
          "internalType": "address",
          "name": "spender",
          "type": "address"
        },
        {
          "indexed": false,
          "internalType": "uint256",
          "name": "value",
          "type": "uint256"
        }
      ],
      "name": "Approval",
      "type": "event"
    },
    {
      "anonymous": false,
      "inputs": [
        {
          "indexed": false,
          "internalType": "address",
          "name": "account",
          "type": "address"
        },
        {
          "indexed": false,
          "internalType": "uint256",
          "name": "amount",
          "type": "uint256"
        }
      ],
      "name": "SteamGenerated",
      "type": "event"
    },
    {
      "anonymous": false,
      "inputs": [
        {
          "indexed": true,
          "internalType": "address",
          "name": "from",
          "type": "address"
        },
        {
          "indexed": true,
          "internalType": "address",
          "name": "to",
          "type": "address"
        },
        {
          "indexed": false,
          "internalType": "uint256",
          "name": "value",
          "type": "uint256"
        }
      ],
      "name": "Transfer",
      "type": "event"
    },
    {
      "constant": true,
      "inputs": [],
      "name": "_UPS",
      "outputs": [
        {
          "internalType": "address",
          "name": "",
          "type": "address"
        }
      ],
      "payable": false,
      "stateMutability": "view",
      "type": "function"
    },
    {
      "constant": true,
      "inputs": [
        {
          "internalType": "address",
          "name": "",
          "type": "address"
        },
        {
          "internalType": "address",
          "name": "",
          "type": "address"
        }
      ],
      "name": "_allowances",
      "outputs": [
        {
          "internalType": "uint256",
          "name": "",
          "type": "uint256"
        }
      ],
      "payable": false,
      "stateMutability": "view",
      "type": "function"
    },
    {
      "constant": true,
      "inputs": [
        {
          "internalType": "address",
          "name": "",
          "type": "address"
        }
      ],
      "name": "_balances",
      "outputs": [
        {
          "internalType": "uint256",
          "name": "",
          "type": "uint256"
        }
      ],
      "payable": false,
      "stateMutability": "view",
      "type": "function"
    },
    {
      "constant": true,
      "inputs": [],
      "name": "_totalSupply",
      "outputs": [
        {
          "internalType": "uint256",
          "name": "",
          "type": "uint256"
        }
      ],
      "payable": false,
      "stateMutability": "view",
      "type": "function"
    },
    {
      "constant": true,
      "inputs": [
        {
          "internalType": "address",
          "name": "owner",
          "type": "address"
        },
        {
          "internalType": "address",
          "name": "spender",
          "type": "address"
        }
      ],
      "name": "allowance",
      "outputs": [
        {
          "internalType": "uint256",
          "name": "",
          "type": "uint256"
        }
      ],
      "payable": false,
      "stateMutability": "view",
      "type": "function"
    },
    {
      "constant": false,
      "inputs": [
        {
          "internalType": "address",
          "name": "spender",
          "type": "address"
        },
        {
          "internalType": "uint256",
          "name": "amount",
          "type": "uint256"
        }
      ],
      "name": "approve",
      "outputs": [
        {
          "internalType": "bool",
          "name": "",
          "type": "bool"
        }
      ],
      "payable": false,
      "stateMutability": "nonpayable",
      "type": "function"
    },
    {
      "constant": true,
      "inputs": [
        {
          "internalType": "address",
          "name": "account",
          "type": "address"
        }
      ],
      "name": "balanceOf",
      "outputs": [
        {
          "internalType": "uint256",
          "name": "",
          "type": "uint256"
        }
      ],
      "payable": false,
      "stateMutability": "view",
      "type": "function"
    },
    {
      "constant": false,
      "inputs": [
        {
          "internalType": "address",
          "name": "spender",
          "type": "address"
        },
        {
          "internalType": "uint256",
          "name": "subtractedValue",
          "type": "uint256"
        }
      ],
      "name": "decreaseAllowance",
      "outputs": [
        {
          "internalType": "bool",
          "name": "",
          "type": "bool"
        }
      ],
      "payable": false,
      "stateMutability": "nonpayable",
      "type": "function"
    },
    {
      "constant": false,
      "inputs": [
        {
          "internalType": "address",
          "name": "spender",
          "type": "address"
        },
        {
          "internalType": "uint256",
          "name": "addedValue",
          "type": "uint256"
        }
      ],
      "name": "increaseAllowance",
      "outputs": [
        {
          "internalType": "bool",
          "name": "",
          "type": "bool"
        }
      ],
      "payable": false,
      "stateMutability": "nonpayable",
      "type": "function"
    },
    {
      "constant": false,
      "inputs": [
        {
          "internalType": "address",
          "name": "recipient",
          "type": "address"
        },
        {
          "internalType": "uint256",
          "name": "amount",
          "type": "uint256"
        }
      ],
      "name": "transfer",
      "outputs": [
        {
          "internalType": "bool",
          "name": "",
          "type": "bool"
        }
      ],
      "payable": false,
      "stateMutability": "nonpayable",
      "type": "function"
    },
    {
      "constant": false,
      "inputs": [
        {
          "internalType": "address",
          "name": "sender",
          "type": "address"
        },
        {
          "internalType": "address",
          "name": "recipient",
          "type": "address"
        },
        {
          "internalType": "uint256",
          "name": "amount",
          "type": "uint256"
        }
      ],
      "name": "transferFrom",
      "outputs": [
        {
          "internalType": "bool",
          "name": "",
          "type": "bool"
        }
      ],
      "payable": false,
      "stateMutability": "nonpayable",
      "type": "function"
    },
    {
      "constant": false,
      "inputs": [
        {
          "internalType": "address",
          "name": "account",
          "type": "address"
        },
        {
          "internalType": "uint256",
          "name": "amount",
          "type": "uint256"
        }
      ],
      "name": "generateSteam",
      "outputs": [],
      "payable": false,
      "stateMutability": "nonpayable",
      "type": "function"
    },
    {
      "constant": true,
      "inputs": [],
      "name": "name",
      "outputs": [
        {
          "internalType": "string",
          "name": "",
          "type": "string"
        }
      ],
      "payable": false,
      "stateMutability": "view",
      "type": "function"
    },
    {
      "constant": true,
      "inputs": [],
      "name": "symbol",
      "outputs": [
        {
          "internalType": "string",
          "name": "",
          "type": "string"
        }
      ],
      "payable": false,
      "stateMutability": "view",
      "type": "function"
    },
    {
      "constant": true,
      "inputs": [],
      "name": "decimals",
      "outputs": [
        {
          "internalType": "uint8",
          "name": "",
          "type": "uint8"
        }
      ],
      "payable": false,
      "stateMutability": "view",
      "type": "function"
    },
    {
      "constant": true,
      "inputs": [],
      "name": "totalSupply",
      "outputs": [
        {
          "internalType": "uint256",
          "name": "",
          "type": "uint256"
        }
      ],
      "payable": false,
      "stateMutability": "view",
      "type": "function"
    },
    {
      "constant": true,
      "inputs": [
        {
          "internalType": "address",
          "name": "_address",
          "type": "address"
        }
      ],
      "name": "mySteam",
      "outputs": [
        {
          "internalType": "uint256",
          "name": "",
          "type": "uint256"
        }
      ],
      "payable": false,
      "stateMutability": "view",
      "type": "function"
    },
    {
      "constant": true,
      "inputs": [],
      "name": "getSteamTotalSupply",
      "outputs": [
        {
          "internalType": "uint256",
          "name": "",
          "type": "uint256"
        }
      ],
      "payable": false,
      "stateMutability": "view",
      "type": "function"
    },
    {
      "constant": true,
      "inputs": [],
      "name": "getSteamMaxSupply",
      "outputs": [
        {
          "internalType": "uint256",
          "name": "",
          "type": "uint256"
        }
      ],
      "payable": false,
      "stateMutability": "view",
      "type": "function"
    },
    {
      "constant": true,
      "inputs": [],
      "name": "getSteamMinted",
      "outputs": [
        {
          "internalType": "uint256",
          "name": "",
          "type": "uint256"
        }
      ],
      "payable": false,
      "stateMutability": "view",
      "type": "function"
    }
  ],
  "bytecode": "0x608060405260006008553480156200001657600080fd5b506040516200123238038062001232833981810160405260208110156200003c57600080fd5b505160408051808201909152600580825264535445414d60d81b60209092019182526200006c91600391620002ff565b5060408051808201909152600580825264535445414d60d81b6020909201918252620000999181620002ff565b5060068054601260ff19909116179055620000c981670de0b6b3a764000062000137602090811b62000c3d17901c565b600755620000fd620000e36001600160e01b036200019e16565b670de0b6b3a7640000620001a360201b62000b4d1760201c565b620001106001600160e01b036200019e16565b600480546001600160a01b0319166001600160a01b039290921691909117905550620003a1565b600082620001485750600062000198565b828202828482816200015657fe5b0414620001955760405162461bcd60e51b8152600401808060200182810382526021815260200180620012116021913960400191505060405180910390fd5b90505b92915050565b335b90565b6001600160a01b038216620001ff576040805162461bcd60e51b815260206004820152601f60248201527f45524332303a206d696e7420746f20746865207a65726f206164647265737300604482015290519081900360640190fd5b6200021b81600254620002a460201b62000aec1790919060201c565b6002556001600160a01b038216600090815260208181526040909120546200024e91839062000aec620002a4821b17901c565b6001600160a01b0383166000818152602081815260408083209490945583518581529351929391927fddf252ad1be2c89b69c2b068fc378daa952ba7f163c4a11628f55a4df523b3ef9281900390910190a35050565b60008282018381101562000195576040805162461bcd60e51b815260206004820152601b60248201527f536166654d6174683a206164646974696f6e206f766572666c6f770000000000604482015290519081900360640190fd5b828054600181600116156101000203166002900490600052602060002090601f016020900481019282601f106200034257805160ff191683800117855562000372565b8280016001018555821562000372579182015b828111156200037257825182559160200191906001019062000355565b506200038092915062000384565b5090565b620001a091905b808211156200038057600081556001016200038b565b610e6080620003b16000396000f3fe608060405234801561001057600080fd5b506004361061012c5760003560e01c80636ebcf607116100ad57806398fd3f581161007157806398fd3f5814610364578063a457c2d714610392578063a9059cbb146103be578063d2bd03b2146103ea578063dd62ed3e146103f25761012c565b80636ebcf607146102e45780636f3092911461030a57806370a082311461032e578063931ad5091461035457806395d89b411461035c5761012c565b80631ba6b604116100f45780631ba6b6041461025457806323b872dd1461025c578063313ce5671461029257806339509351146102b05780633eaaf86b146102dc5761012c565b8063024c2ddd146101315780630491d81f1461017157806306fdde0314610197578063095ea7b31461021457806318160ddd14610254575b600080fd5b61015f6004803603604081101561014757600080fd5b506001600160a01b0381358116916020013516610420565b60408051918252519081900360200190f35b61015f6004803603602081101561018757600080fd5b50356001600160a01b031661043d565b61019f61044e565b6040805160208082528351818301528351919283929083019185019080838360005b838110156101d95781810151838201526020016101c1565b50505050905090810190601f1680156102065780820380516001836020036101000a031916815260200191505b509250505060405180910390f35b6102406004803603604081101561022a57600080fd5b506001600160a01b0381351690602001356104e4565b604080519115158252519081900360200190f35b61015f610501565b6102406004803603606081101561027257600080fd5b506001600160a01b03813581169160208101359091169060400135610507565b61029a610594565b6040805160ff9092168252519081900360200190f35b610240600480360360408110156102c657600080fd5b506001600160a01b03813516906020013561059d565b61015f6105f1565b61015f600480360360208110156102fa57600080fd5b50356001600160a01b03166105f7565b610312610609565b604080516001600160a01b039092168252519081900360200190f35b61015f6004803603602081101561034457600080fd5b50356001600160a01b0316610618565b61015f610633565b61019f610639565b6103906004803603604081101561037a57600080fd5b506001600160a01b03813516906020013561069a565b005b610240600480360360408110156103a857600080fd5b506001600160a01b038135169060200135610756565b610240600480360360408110156103d457600080fd5b506001600160a01b0381351690602001356107c4565b61015f6107d8565b61015f6004803603604081101561040857600080fd5b506001600160a01b03813581169160200135166107de565b600160209081526000928352604080842090915290825290205481565b600061044882610618565b92915050565b60038054604080516020601f60026000196101006001881615020190951694909404938401819004810282018101909252828152606093909290918301828280156104da5780601f106104af576101008083540402835291602001916104da565b820191906000526020600020905b8154815290600101906020018083116104bd57829003601f168201915b5050505050905090565b60006104f86104f1610809565b848461080d565b50600192915050565b60025490565b60006105148484846108f9565b61058a84610520610809565b61058585604051806060016040528060288152602001610d5e602891396001600160a01b038a1660009081526001602052604081209061055e610809565b6001600160a01b03168152602081019190915260400160002054919063ffffffff610a5516565b61080d565b5060019392505050565b60065460ff1690565b60006104f86105aa610809565b8461058585600160006105bb610809565b6001600160a01b03908116825260208083019390935260409182016000908120918c16815292529020549063ffffffff610aec16565b60025481565b60006020819052908152604090205481565b6004546001600160a01b031681565b6001600160a01b031660009081526020819052604090205490565b60075490565b60058054604080516020601f60026000196101006001881615020190951694909404938401819004810282018101909252828152606093909290918301828280156104da5780601f106104af576101008083540402835291602001916104da565b6106a2610809565b6004546001600160a01b039081169116146106ee5760405162461bcd60e51b8152600401808060200182810382526038815260200180610dcf6038913960400191505060405180910390fd5b6007548160025401106107325760405162461bcd60e51b815260040180806020018281038252603b815260200180610cdc603b913960400191505060405180910390fd5b61073c8282610b4d565b60085461074f908263ffffffff610aec16565b6008555050565b60006104f8610763610809565b8461058585604051806060016040528060258152602001610e07602591396001600061078d610809565b6001600160a01b03908116825260208083019390935260409182016000908120918d1681529252902054919063ffffffff610a5516565b60006104f86107d1610809565b84846108f9565b60085490565b6001600160a01b03918216600090815260016020908152604080832093909416825291909152205490565b3390565b6001600160a01b0383166108525760405162461bcd60e51b8152600401808060200182810382526024815260200180610dab6024913960400191505060405180910390fd5b6001600160a01b0382166108975760405162461bcd60e51b8152600401808060200182810382526022815260200180610cba6022913960400191505060405180910390fd5b6001600160a01b03808416600081815260016020908152604080832094871680845294825291829020859055815185815291517f8c5be1e5ebec7d5bd14f71427d1e84f3dd0314c0f7b2291e5b200ac8c7c3b9259281900390910190a3505050565b6001600160a01b03831661093e5760405162461bcd60e51b8152600401808060200182810382526025815260200180610d866025913960400191505060405180910390fd5b6001600160a01b0382166109835760405162461bcd60e51b8152600401808060200182810382526023815260200180610c976023913960400191505060405180910390fd5b6109c681604051806060016040528060268152602001610d17602691396001600160a01b038616600090815260208190526040902054919063ffffffff610a5516565b6001600160a01b0380851660009081526020819052604080822093909355908416815220546109fb908263ffffffff610aec16565b6001600160a01b038084166000818152602081815260409182902094909455805185815290519193928716927fddf252ad1be2c89b69c2b068fc378daa952ba7f163c4a11628f55a4df523b3ef92918290030190a3505050565b60008184841115610ae45760405162461bcd60e51b81526004018080602001828103825283818151815260200191508051906020019080838360005b83811015610aa9578181015183820152602001610a91565b50505050905090810190601f168015610ad65780820380516001836020036101000a031916815260200191505b509250505060405180910390fd5b505050900390565b600082820183811015610b46576040805162461bcd60e51b815260206004820152601b60248201527f536166654d6174683a206164646974696f6e206f766572666c6f770000000000604482015290519081900360640190fd5b9392505050565b6001600160a01b038216610ba8576040805162461bcd60e51b815260206004820152601f60248201527f45524332303a206d696e7420746f20746865207a65726f206164647265737300604482015290519081900360640190fd5b600254610bbb908263ffffffff610aec16565b6002556001600160a01b038216600090815260208190526040902054610be7908263ffffffff610aec16565b6001600160a01b0383166000818152602081815260408083209490945583518581529351929391927fddf252ad1be2c89b69c2b068fc378daa952ba7f163c4a11628f55a4df523b3ef9281900390910190a35050565b600082610c4c57506000610448565b82820282848281610c5957fe5b0414610b465760405162461bcd60e51b8152600401808060200182810382526021815260200180610d3d6021913960400191505060405180910390fdfe45524332303a207472616e7366657220746f20746865207a65726f206164647265737345524332303a20617070726f766520746f20746865207a65726f2061646472657373535445414d20746f6b656e3a2063616e6e6f742067656e6572617465206d6f726520737465616d207468616e20746865206d617820737570706c7945524332303a207472616e7366657220616d6f756e7420657863656564732062616c616e6365536166654d6174683a206d756c7469706c69636174696f6e206f766572666c6f7745524332303a207472616e7366657220616d6f756e74206578636565647320616c6c6f77616e636545524332303a207472616e736665722066726f6d20746865207a65726f206164647265737345524332303a20617070726f76652066726f6d20746865207a65726f20616464726573736f6e6c795550533a204f6e6c792074686520555053746b6e20636f6e7472616374206d61792063616c6c20746869732066756e6374696f6e45524332303a2064656372656173656420616c6c6f77616e63652062656c6f77207a65726fa265627a7a72315820ad8fe03ac9423bfeb5bac2d521a9370f1d824244b21bac23775f3d7eb244bc4464736f6c63430005100032536166654d6174683a206d756c7469706c69636174696f6e206f766572666c6f77",
  "source": "//SPDX-Licence-Identifier: 2guys\n\npragma solidity 0.5.16;\n\nimport \"./ERC20.sol\";\n\ncontract Steam is ERC20 {\n\n    using SafeMath for uint256;\n\n    modifier onlyUPS() {\n        require(_UPS == _msgSender(), \"onlyUPS: Only the UPStkn contract may call this function\");\n        _;\n    }\n\n    string private _name;\n    address public _UPS;\n    string private _symbol;\n    uint8 private _decimals;\n    uint256 private _maxSupply;\n    uint256 private _steamMinted = 0;\n    mapping(address => uint256) sellPressure;\n    mapping(address => uint256) burnerTokensToMint;\n\n    event SteamGenerated(address account, uint amount);\n\n    constructor(uint256 STEAM_maxTokens) public {\n        _name = \"STEAM\";\n        _symbol = \"STEAM\";\n        _decimals = 18;\n        _maxSupply = STEAM_maxTokens.mul(1e18);  // allows to enter the supply in standard numbers\n        ERC20._mint(_msgSender(), 1e18);    // mints 1 token\n        _UPS =  _msgSender();\n    }\n    \n    function generateSteam(address account, uint256 amount) external onlyUPS {\n        require((_totalSupply + amount) < _maxSupply, \"STEAM token: cannot generate more steam than the max supply\");\n        ERC20._mint(account, amount);\n        _steamMinted = _steamMinted.add(amount);\n    }\n    \n    function name() public view returns (string memory) {\n        return _name;\n    }\n\n    function symbol() public view returns (string memory) {\n        return _symbol;\n    }\n\n    function decimals() public view returns (uint8) {\n        return _decimals;\n    }\n\n    function totalSupply() public view returns (uint256) {\n        return ERC20._totalSupply;\n    }\n    \n    function mySteam(address _address) public view returns(uint256){\n        return balanceOf(_address);\n    }\n    \n    function getSteamTotalSupply() public view returns(uint256){\n        return _totalSupply;\n    }\n    \n    function getSteamMaxSupply() public view returns(uint256){\n        return _maxSupply;\n    }\n    \n    function getSteamMinted() public view returns(uint256){\n        return _steamMinted;\n    }\n\n}",
  "sourcePath": "/home/abhi/Projects/swingAudit/contracts/Steam.sol",
  "compiler": {
    "name": "solc",
    "version": "0.5.16+commit.9c3226ce.Emscripten.clang"
  },
  "schemaVersion": "3.2.4",
  "updatedAt": "2020-09-21T18:44:07.830Z",
  "devdoc": {
    "methods": {
      "allowance(address,address)": {
        "details": "See {IERC20-allowance}."
      },
      "approve(address,uint256)": {
        "details": "See {IERC20-approve}.     * Requirements:     * - `spender` cannot be the zero address."
      },
      "balanceOf(address)": {
        "details": "See {IERC20-balanceOf}."
      },
      "decreaseAllowance(address,uint256)": {
        "details": "Atomically decreases the allowance granted to `spender` by the caller.     * This is an alternative to {approve} that can be used as a mitigation for problems described in {IERC20-approve}.     * Emits an {Approval} event indicating the updated allowance.     * Requirements:     * - `spender` cannot be the zero address. - `spender` must have allowance for the caller of at least `subtractedValue`."
      },
      "increaseAllowance(address,uint256)": {
        "details": "Atomically increases the allowance granted to `spender` by the caller.     * This is an alternative to {approve} that can be used as a mitigation for problems described in {IERC20-approve}.     * Emits an {Approval} event indicating the updated allowance.     * Requirements:     * - `spender` cannot be the zero address."
      },
      "transfer(address,uint256)": {
        "details": "See {IERC20-transfer}.     * Requirements:     * - `recipient` cannot be the zero address. - the caller must have a balance of at least `amount`."
      },
      "transferFrom(address,address,uint256)": {
        "details": "See {IERC20-transferFrom}.     * Emits an {Approval} event indicating the updated allowance. This is not required by the EIP. See the note at the beginning of {ERC20};     * Requirements: - `sender` and `recipient` cannot be the zero address. - `sender` must have a balance of at least `amount`. - the caller must have allowance for `sender`'s tokens of at least `amount`."
      }
    }
  },
  "userdoc": {
    "methods": {}
  }
}