{
  "contractName": "UpSwing",
  "abi": [
    {
      "inputs": [
        {
          "internalType": "uint256",
          "name": "UPS_totalSupply",
          "type": "uint256"
        }
      ],
      "payable": false,
      "stateMutability": "nonpayable",
      "type": "constructor"
    },
    {
      "anonymous": false,
      "inputs": [
        {
          "indexed": true,
          "internalType": "address",
          "name": "owner",
          "type": "address"
        },
        {
          "indexed": true,
          "internalType": "address",
          "name": "spender",
          "type": "address"
        },
        {
          "indexed": false,
          "internalType": "uint256",
          "name": "value",
          "type": "uint256"
        }
      ],
      "name": "Approval",
      "type": "event"
    },
    {
      "anonymous": false,
      "inputs": [
        {
          "indexed": false,
          "internalType": "address",
          "name": "burnerAddress",
          "type": "address"
        },
        {
          "indexed": false,
          "internalType": "uint256",
          "name": "amount",
          "type": "uint256"
        }
      ],
      "name": "BurnedFromLiquidityPool",
      "type": "event"
    },
    {
      "anonymous": false,
      "inputs": [
        {
          "indexed": false,
          "internalType": "address",
          "name": "steamRecipientddress",
          "type": "address"
        },
        {
          "indexed": false,
          "internalType": "uint256",
          "name": "amount",
          "type": "uint256"
        }
      ],
      "name": "SteamGenerated",
      "type": "event"
    },
    {
      "anonymous": false,
      "inputs": [
        {
          "indexed": true,
          "internalType": "address",
          "name": "from",
          "type": "address"
        },
        {
          "indexed": true,
          "internalType": "address",
          "name": "to",
          "type": "address"
        },
        {
          "indexed": false,
          "internalType": "uint256",
          "name": "value",
          "type": "uint256"
        }
      ],
      "name": "Transfer",
      "type": "event"
    },
    {
      "constant": true,
      "inputs": [
        {
          "internalType": "address",
          "name": "",
          "type": "address"
        },
        {
          "internalType": "address",
          "name": "",
          "type": "address"
        }
      ],
      "name": "_allowances",
      "outputs": [
        {
          "internalType": "uint256",
          "name": "",
          "type": "uint256"
        }
      ],
      "payable": false,
      "stateMutability": "view",
      "type": "function"
    },
    {
      "constant": true,
      "inputs": [
        {
          "internalType": "address",
          "name": "",
          "type": "address"
        }
      ],
      "name": "_balances",
      "outputs": [
        {
          "internalType": "uint256",
          "name": "",
          "type": "uint256"
        }
      ],
      "payable": false,
      "stateMutability": "view",
      "type": "function"
    },
    {
      "constant": true,
      "inputs": [],
      "name": "_totalSupply",
      "outputs": [
        {
          "internalType": "uint256",
          "name": "",
          "type": "uint256"
        }
      ],
      "payable": false,
      "stateMutability": "view",
      "type": "function"
    },
    {
      "constant": true,
      "inputs": [
        {
          "internalType": "address",
          "name": "owner",
          "type": "address"
        },
        {
          "internalType": "address",
          "name": "spender",
          "type": "address"
        }
      ],
      "name": "allowance",
      "outputs": [
        {
          "internalType": "uint256",
          "name": "",
          "type": "uint256"
        }
      ],
      "payable": false,
      "stateMutability": "view",
      "type": "function"
    },
    {
      "constant": true,
      "inputs": [
        {
          "internalType": "address",
          "name": "",
          "type": "address"
        }
      ],
      "name": "allowed",
      "outputs": [
        {
          "internalType": "bool",
          "name": "",
          "type": "bool"
        }
      ],
      "payable": false,
      "stateMutability": "view",
      "type": "function"
    },
    {
      "constant": false,
      "inputs": [
        {
          "internalType": "address",
          "name": "spender",
          "type": "address"
        },
        {
          "internalType": "uint256",
          "name": "amount",
          "type": "uint256"
        }
      ],
      "name": "approve",
      "outputs": [
        {
          "internalType": "bool",
          "name": "",
          "type": "bool"
        }
      ],
      "payable": false,
      "stateMutability": "nonpayable",
      "type": "function"
    },
    {
      "constant": true,
      "inputs": [
        {
          "internalType": "address",
          "name": "account",
          "type": "address"
        }
      ],
      "name": "balanceOf",
      "outputs": [
        {
          "internalType": "uint256",
          "name": "",
          "type": "uint256"
        }
      ],
      "payable": false,
      "stateMutability": "view",
      "type": "function"
    },
    {
      "constant": false,
      "inputs": [
        {
          "internalType": "address",
          "name": "spender",
          "type": "address"
        },
        {
          "internalType": "uint256",
          "name": "subtractedValue",
          "type": "uint256"
        }
      ],
      "name": "decreaseAllowance",
      "outputs": [
        {
          "internalType": "bool",
          "name": "",
          "type": "bool"
        }
      ],
      "payable": false,
      "stateMutability": "nonpayable",
      "type": "function"
    },
    {
      "constant": false,
      "inputs": [
        {
          "internalType": "address",
          "name": "spender",
          "type": "address"
        },
        {
          "internalType": "uint256",
          "name": "addedValue",
          "type": "uint256"
        }
      ],
      "name": "increaseAllowance",
      "outputs": [
        {
          "internalType": "bool",
          "name": "",
          "type": "bool"
        }
      ],
      "payable": false,
      "stateMutability": "nonpayable",
      "type": "function"
    },
    {
      "constant": true,
      "inputs": [],
      "name": "leverage",
      "outputs": [
        {
          "internalType": "uint8",
          "name": "",
          "type": "uint8"
        }
      ],
      "payable": false,
      "stateMutability": "view",
      "type": "function"
    },
    {
      "constant": false,
      "inputs": [
        {
          "internalType": "address",
          "name": "recipient",
          "type": "address"
        },
        {
          "internalType": "uint256",
          "name": "amount",
          "type": "uint256"
        }
      ],
      "name": "transfer",
      "outputs": [
        {
          "internalType": "bool",
          "name": "",
          "type": "bool"
        }
      ],
      "payable": false,
      "stateMutability": "nonpayable",
      "type": "function"
    },
    {
      "constant": false,
      "inputs": [
        {
          "internalType": "address",
          "name": "sender",
          "type": "address"
        },
        {
          "internalType": "address",
          "name": "recipient",
          "type": "address"
        },
        {
          "internalType": "uint256",
          "name": "amount",
          "type": "uint256"
        }
      ],
      "name": "transferFrom",
      "outputs": [
        {
          "internalType": "bool",
          "name": "",
          "type": "bool"
        }
      ],
      "payable": false,
      "stateMutability": "nonpayable",
      "type": "function"
    },
    {
      "constant": false,
      "inputs": [
        {
          "internalType": "address",
          "name": "_address",
          "type": "address"
        }
      ],
      "name": "setUNIv2",
      "outputs": [],
      "payable": false,
      "stateMutability": "nonpayable",
      "type": "function"
    },
    {
      "constant": false,
      "inputs": [
        {
          "internalType": "address",
          "name": "_address",
          "type": "address"
        }
      ],
      "name": "setTreasury",
      "outputs": [],
      "payable": false,
      "stateMutability": "nonpayable",
      "type": "function"
    },
    {
      "constant": false,
      "inputs": [
        {
          "internalType": "uint8",
          "name": "_leverage",
          "type": "uint8"
        }
      ],
      "name": "setLeverage",
      "outputs": [],
      "payable": false,
      "stateMutability": "nonpayable",
      "type": "function"
    },
    {
      "constant": true,
      "inputs": [
        {
          "internalType": "address",
          "name": "_address",
          "type": "address"
        }
      ],
      "name": "myPressure",
      "outputs": [
        {
          "internalType": "uint256",
          "name": "",
          "type": "uint256"
        }
      ],
      "payable": false,
      "stateMutability": "view",
      "type": "function"
    },
    {
      "constant": true,
      "inputs": [
        {
          "internalType": "address",
          "name": "_address",
          "type": "address"
        }
      ],
      "name": "mySteam",
      "outputs": [
        {
          "internalType": "uint256",
          "name": "",
          "type": "uint256"
        }
      ],
      "payable": false,
      "stateMutability": "view",
      "type": "function"
    },
    {
      "constant": true,
      "inputs": [],
      "name": "getUNIV2Address",
      "outputs": [
        {
          "internalType": "address",
          "name": "",
          "type": "address"
        }
      ],
      "payable": false,
      "stateMutability": "view",
      "type": "function"
    },
    {
      "constant": true,
      "inputs": [],
      "name": "getUNIV2Liq",
      "outputs": [
        {
          "internalType": "uint256",
          "name": "",
          "type": "uint256"
        }
      ],
      "payable": false,
      "stateMutability": "view",
      "type": "function"
    },
    {
      "constant": true,
      "inputs": [],
      "name": "getUPSTotalSupply",
      "outputs": [
        {
          "internalType": "uint256",
          "name": "",
          "type": "uint256"
        }
      ],
      "payable": false,
      "stateMutability": "view",
      "type": "function"
    },
    {
      "constant": true,
      "inputs": [],
      "name": "getUPSBurned",
      "outputs": [
        {
          "internalType": "uint256",
          "name": "",
          "type": "uint256"
        }
      ],
      "payable": false,
      "stateMutability": "view",
      "type": "function"
    },
    {
      "constant": true,
      "inputs": [],
      "name": "name",
      "outputs": [
        {
          "internalType": "string",
          "name": "",
          "type": "string"
        }
      ],
      "payable": false,
      "stateMutability": "view",
      "type": "function"
    },
    {
      "constant": true,
      "inputs": [],
      "name": "symbol",
      "outputs": [
        {
          "internalType": "string",
          "name": "",
          "type": "string"
        }
      ],
      "payable": false,
      "stateMutability": "view",
      "type": "function"
    },
    {
      "constant": true,
      "inputs": [],
      "name": "decimals",
      "outputs": [
        {
          "internalType": "uint8",
          "name": "",
          "type": "uint8"
        }
      ],
      "payable": false,
      "stateMutability": "view",
      "type": "function"
    },
    {
      "constant": true,
      "inputs": [],
      "name": "totalSupply",
      "outputs": [
        {
          "internalType": "uint256",
          "name": "",
          "type": "uint256"
        }
      ],
      "payable": false,
      "stateMutability": "view",
      "type": "function"
    }
  ],
  "bytecode": "0x608060405260006009553480156200001657600080fd5b5060405162002e0738038062002e07833981810160405260208110156200003c57600080fd5b50516040805180820190915260078082526655705377696e6760c81b60209092019182526200006e916006916200036e565b506040805180820190915260038082526255505360e81b60209092019182526200009b916007916200036e565b506008805460ff19166012179055620000f3620000c06001600160e01b03620001a616565b620000e2670de0b6b3a764000084620001ab60201b62000ef11790919060201c565b6200021260201b620014a51760201c565b600a805460ff1916605a179055600480546001600160a01b0319163317905560405181906200012290620003f3565b90815260405190819003602001906000f08015801562000146573d6000803e3d6000fd5b50600e80546001600160a01b0319166001600160a01b039290921691909117905560016005600062000177620001a6565b6001600160a01b031681526020810191909152604001600020805460ff1916911515919091179055506200041e565b335b90565b600082620001bc575060006200020c565b82820282848281620001ca57fe5b0414620002095760405162461bcd60e51b815260040180806020018281038252602181526020018062002de66021913960400191505060405180910390fd5b90505b92915050565b6001600160a01b0382166200026e576040805162461bcd60e51b815260206004820152601f60248201527f45524332303a206d696e7420746f20746865207a65726f206164647265737300604482015290519081900360640190fd5b6200028a816002546200031360201b62000dfc1790919060201c565b6002556001600160a01b03821660009081526020818152604090912054620002bd91839062000dfc62000313821b17901c565b6001600160a01b0383166000818152602081815260408083209490945583518581529351929391927fddf252ad1be2c89b69c2b068fc378daa952ba7f163c4a11628f55a4df523b3ef9281900390910190a35050565b60008282018381101562000209576040805162461bcd60e51b815260206004820152601b60248201527f536166654d6174683a206164646974696f6e206f766572666c6f770000000000604482015290519081900360640190fd5b828054600181600116156101000203166002900490600052602060002090601f016020900481019282601f10620003b157805160ff1916838001178555620003e1565b82800160010185558215620003e1579182015b82811115620003e1578251825591602001919060010190620003c4565b50620003ef92915062000401565b5090565b6112328062001bb483390190565b620001a891905b80821115620003ef576000815560010162000408565b611786806200042e6000396000f3fe608060405234801561001057600080fd5b50600436106101735760003560e01c80636ebcf607116100de578063a9059cbb11610097578063d63a8e1111610071578063d63a8e111461045b578063dd62ed3e14610481578063f0f44260146104af578063f184f53d146104d557610173565b8063a9059cbb14610427578063aa481f841461029b578063ba6aa7411461045357610173565b80636ebcf6071461036357806370a082311461038957806395d89b41146103af5780639dfd117c146103b75780639ee2de8c146103db578063a457c2d7146103fb57610173565b806323b872dd1161013057806323b872dd146102cb5780632c86d98e14610301578063313ce5671461031f57806339509351146103275780633aa297c2146103535780633eaaf86b1461035b57610173565b8063024c2ddd146101785780630491d81f146101b857806306fdde03146101de578063095ea7b31461025b57806318160ddd1461029b5780631a994d37146102a3575b600080fd5b6101a66004803603604081101561018e57600080fd5b506001600160a01b03813581169160200135166104fb565b60408051918252519081900360200190f35b6101a6600480360360208110156101ce57600080fd5b50356001600160a01b0316610518565b6101e6610533565b6040805160208082528351818301528351919283929083019185019080838360005b83811015610220578181015183820152602001610208565b50505050905090810190601f16801561024d5780820380516001836020036101000a031916815260200191505b509250505060405180910390f35b6102876004803603604081101561027157600080fd5b506001600160a01b0381351690602001356105c9565b604080519115158252519081900360200190f35b6101a66105e7565b6102c9600480360360208110156102b957600080fd5b50356001600160a01b03166105ed565b005b610287600480360360608110156102e157600080fd5b506001600160a01b03813581169160208101359091169060400135610677565b610309610704565b6040805160ff9092168252519081900360200190f35b61030961070d565b6102876004803603604081101561033d57600080fd5b506001600160a01b038135169060200135610716565b6101a661076a565b6101a6610787565b6101a66004803603602081101561037957600080fd5b50356001600160a01b031661078d565b6101a66004803603602081101561039f57600080fd5b50356001600160a01b031661079f565b6101e66107ba565b6103bf61081b565b604080516001600160a01b039092168252519081900360200190f35b6102c9600480360360208110156103f157600080fd5b503560ff1661082a565b6102876004803603604081101561041157600080fd5b506001600160a01b0381351690602001356108c3565b6102876004803603604081101561043d57600080fd5b506001600160a01b038135169060200135610931565b6101a6610945565b6102876004803603602081101561047157600080fd5b50356001600160a01b031661094b565b6101a66004803603604081101561049757600080fd5b506001600160a01b0381358116916020013516610960565b6102c9600480360360208110156104c557600080fd5b50356001600160a01b031661098b565b6101a6600480360360208110156104eb57600080fd5b50356001600160a01b0316610a15565b600160209081526000928352604080842090915290825290205481565b6001600160a01b03166000908152600c602052604090205490565b60068054604080516020601f60026000196101006001881615020190951694909404938401819004810282018101909252828152606093909290918301828280156105bf5780601f10610594576101008083540402835291602001916105bf565b820191906000526020600020905b8154815290600101906020018083116105a257829003601f168201915b5050505050905090565b60006105dd6105d6610a37565b8484610a3b565b5060015b92915050565b60025490565b600560006105f9610a37565b6001600160a01b0316815260208101919091526040016000205460ff16610655576040805162461bcd60e51b815260206004820152600b60248201526a1bdb9b1e505b1b1bddd95960aa1b604482015290519081900360640190fd5b600380546001600160a01b0319166001600160a01b0392909216919091179055565b6000610684848484610b27565b6106fa84610690610a37565b6106f585604051806060016040528060288152602001611644602891396001600160a01b038a166000908152600160205260408120906106ce610a37565b6001600160a01b03168152602081019190915260400160002054919063ffffffff610d6516565b610a3b565b5060019392505050565b600a5460ff1681565b60085460ff1690565b60006105dd610723610a37565b846106f58560016000610734610a37565b6001600160a01b03908116825260208083019390935260409182016000908120918c16815292529020549063ffffffff610dfc16565b600354600090610782906001600160a01b031661079f565b905090565b60025481565b60006020819052908152604090205481565b6001600160a01b031660009081526020819052604090205490565b60078054604080516020601f60026000196101006001881615020190951694909404938401819004810282018101909252828152606093909290918301828280156105bf5780601f10610594576101008083540402835291602001916105bf565b6003546001600160a01b031690565b60056000610836610a37565b6001600160a01b0316815260208101919091526040016000205460ff16610892576040805162461bcd60e51b815260206004820152600b60248201526a1bdb9b1e505b1b1bddd95960aa1b604482015290519081900360640190fd5b60648160ff16111580156108a4575060015b6108ad57600080fd5b600a805460ff191660ff92909216919091179055565b60006105dd6108d0610a37565b846106f58560405180606001604052806025815260200161172d60259139600160006108fa610a37565b6001600160a01b03908116825260208083019390935260409182016000908120918d1681529252902054919063ffffffff610d6516565b60006105dd61093e610a37565b8484610b27565b60095490565b60056020526000908152604090205460ff1681565b6001600160a01b03918216600090815260016020908152604080832093909416825291909152205490565b60056000610997610a37565b6001600160a01b0316815260208101919091526040016000205460ff166109f3576040805162461bcd60e51b815260206004820152600b60248201526a1bdb9b1e505b1b1bddd95960aa1b604482015290519081900360640190fd5b600480546001600160a01b0319166001600160a01b0392909216919091179055565b6001600160a01b0381166000908152600b60205260408120546105e190610e5d565b3390565b6001600160a01b038316610a805760405162461bcd60e51b81526004018080602001828103825260248152602001806117096024913960400191505060405180910390fd5b6001600160a01b038216610ac55760405162461bcd60e51b81526004018080602001828103825260228152602001806115db6022913960400191505060405180910390fd5b6001600160a01b03808416600081815260016020908152604080832094871680845294825291829020859055815185815291517f8c5be1e5ebec7d5bd14f71427d1e84f3dd0314c0f7b2291e5b200ac8c7c3b9259281900390910190a3505050565b6001600160a01b038316610b6c5760405162461bcd60e51b815260040180806020018281038252602581526020018061168d6025913960400191505060405180910390fd5b6001600160a01b038216610bb15760405162461bcd60e51b81526004018080602001828103825260238152602001806115966023913960400191505060405180910390fd5b610bf4816040518060600160405280602681526020016115fd602691396001600160a01b038616600090815260208190526040902054919063ffffffff610d6516565b6001600160a01b038085166000908152602081905260408082209390935590841681522054610c29908263ffffffff610dfc16565b6001600160a01b03808416600081815260208190526040902092909255600354161415610ce8576001600160a01b0383166000908152600d60205260409020805460010190819055610ca2906402540be40090610c9690610c8990610eca565b849063ffffffff610ef116565b9063ffffffff610f4a16565b6001600160a01b0384166000908152600b6020526040902054909150610cce908263ffffffff610dfc16565b6001600160a01b0384166000908152600b60205260409020555b816001600160a01b0316836001600160a01b0316148015610d07575080155b15610d1557610d1583610f8c565b816001600160a01b0316836001600160a01b03167fddf252ad1be2c89b69c2b068fc378daa952ba7f163c4a11628f55a4df523b3ef836040518082815260200191505060405180910390a3505050565b60008184841115610df45760405162461bcd60e51b81526004018080602001828103825283818151815260200191508051906020019080838360005b83811015610db9578181015183820152602001610da1565b50505050905090810190601f168015610de65780820380516001836020036101000a031916815260200191505b509250505060405180910390fd5b505050900390565b600082820183811015610e56576040805162461bcd60e51b815260206004820152601b60248201527f536166654d6174683a206164646974696f6e206f766572666c6f770000000000604482015290519081900360640190fd5b9392505050565b600080610e8b610e6b6105e7565b610c96670de0b6b3a7640000610e7f61076a565b9063ffffffff610ef116565b600a54909150610eac90606490610c9690849060ff1663ffffffff610ef116565b9050610e56670de0b6b3a7640000610c96858463ffffffff610ef116565b6000600182800201806402540be40081610ee057fe5b0490506064605c8202049392505050565b600082610f00575060006105e1565b82820282848281610f0d57fe5b0414610e565760405162461bcd60e51b81526004018080602001828103825260218152602001806116236021913960400191505060405180910390fd5b6000610e5683836040518060400160405280601a81526020017f536166654d6174683a206469766973696f6e206279207a65726f0000000000008152506111cf565b6000610f9782610a15565b600354909150610faf906001600160a01b031661079f565b81101561111957600254610fcb906103e863ffffffff610f4a16565b600254610fde908363ffffffff61123416565b101561101b5760405162461bcd60e51b81526004018080602001828103825260578152602001806116b26057913960600191505060405180910390fd5b6001600160a01b0382166000908152600b602052604081205561103e8282611276565b600354611054906001600160a01b0316826112bf565b600954611067908263ffffffff610dfc16565b600955604080516001600160a01b03841681526020810183905281517f3ce99fa4b2f6c49c1f32731ecdd4387943c08f122e05eac58deca66217d92034929181900390910190a16110b7826113bb565b604080516001600160a01b03841681526020810183905281517fa251c0dbd77714c1358778e14ddef12ee3153f41c6425eef9c246f5910352cc4929181900390910190a16001600160a01b0382166000908152600d6020526040812055611163565b8015611163576001600160a01b0382166000908152600b602052604090205461114990600263ffffffff610f4a16565b6001600160a01b0383166000908152600b60205260409020555b600360009054906101000a90046001600160a01b03166001600160a01b031663fff6cae96040518163ffffffff1660e01b8152600401600060405180830381600087803b1580156111b357600080fd5b505af11580156111c7573d6000803e3d6000fd5b505050505050565b6000818361121e5760405162461bcd60e51b8152602060048201818152835160248401528351909283926044909101919085019080838360008315610db9578181015183820152602001610da1565b50600083858161122a57fe5b0495945050505050565b6000610e5683836040518060400160405280601e81526020017f536166654d6174683a207375627472616374696f6e206f766572666c6f770000815250610d65565b6001600160a01b0382166000908152600c602052604090205461129f908263ffffffff610dfc16565b6001600160a01b039092166000908152600c602052604090209190915550565b6001600160a01b0382166113045760405162461bcd60e51b815260040180806020018281038252602181526020018061166c6021913960400191505060405180910390fd5b611347816040518060600160405280602281526020016115b9602291396001600160a01b038516600090815260208190526040902054919063ffffffff610d6516565b6001600160a01b038316600090815260208190526040902055600254611373908263ffffffff61123416565b6002556040805182815290516000916001600160a01b038516917fddf252ad1be2c89b69c2b068fc378daa952ba7f163c4a11628f55a4df523b3ef9181900360200190a35050565b6001600160a01b0381166000908152600c6020526040902054819061141e576040805162461bcd60e51b81526020600482015260146024820152736e6f20537465616d20746f2067656e657261746560601b604482015290519081900360640190fd5b6001600160a01b038083166000818152600c6020526040808220805490839055600e54825163131fa7eb60e31b81526004810195909552602485018290529151909491909116926398fd3f5892604480830193919282900301818387803b15801561148857600080fd5b505af115801561149c573d6000803e3d6000fd5b50505050505050565b6001600160a01b038216611500576040805162461bcd60e51b815260206004820152601f60248201527f45524332303a206d696e7420746f20746865207a65726f206164647265737300604482015290519081900360640190fd5b600254611513908263ffffffff610dfc16565b6002556001600160a01b03821660009081526020819052604090205461153f908263ffffffff610dfc16565b6001600160a01b0383166000818152602081815260408083209490945583518581529351929391927fddf252ad1be2c89b69c2b068fc378daa952ba7f163c4a11628f55a4df523b3ef9281900390910190a3505056fe45524332303a207472616e7366657220746f20746865207a65726f206164647265737345524332303a206275726e20616d6f756e7420657863656564732062616c616e636545524332303a20617070726f766520746f20746865207a65726f206164647265737345524332303a207472616e7366657220616d6f756e7420657863656564732062616c616e6365536166654d6174683a206d756c7469706c69636174696f6e206f766572666c6f7745524332303a207472616e7366657220616d6f756e74206578636565647320616c6c6f77616e636545524332303a206275726e2066726f6d20746865207a65726f206164647265737345524332303a207472616e736665722066726f6d20746865207a65726f20616464726573735468657265206973206c657373207468616e20302e3125206f662074686520546f74616c20537570706c792072656d61696e696e672c20756e666f7274756e6174656c792c206b61626f6f6d696e67206973206f76657245524332303a20617070726f76652066726f6d20746865207a65726f206164647265737345524332303a2064656372656173656420616c6c6f77616e63652062656c6f77207a65726fa265627a7a72315820d45c33407015c6b6100ebdc255bb5385baa8327b1dbe2c66ff3e7c439d4bb5db64736f6c63430005100032608060405260006008553480156200001657600080fd5b506040516200123238038062001232833981810160405260208110156200003c57600080fd5b505160408051808201909152600580825264535445414d60d81b60209092019182526200006c91600391620002ff565b5060408051808201909152600580825264535445414d60d81b6020909201918252620000999181620002ff565b5060068054601260ff19909116179055620000c981670de0b6b3a764000062000137602090811b62000c3d17901c565b600755620000fd620000e36001600160e01b036200019e16565b670de0b6b3a7640000620001a360201b62000b4d1760201c565b620001106001600160e01b036200019e16565b600480546001600160a01b0319166001600160a01b039290921691909117905550620003a1565b600082620001485750600062000198565b828202828482816200015657fe5b0414620001955760405162461bcd60e51b8152600401808060200182810382526021815260200180620012116021913960400191505060405180910390fd5b90505b92915050565b335b90565b6001600160a01b038216620001ff576040805162461bcd60e51b815260206004820152601f60248201527f45524332303a206d696e7420746f20746865207a65726f206164647265737300604482015290519081900360640190fd5b6200021b81600254620002a460201b62000aec1790919060201c565b6002556001600160a01b038216600090815260208181526040909120546200024e91839062000aec620002a4821b17901c565b6001600160a01b0383166000818152602081815260408083209490945583518581529351929391927fddf252ad1be2c89b69c2b068fc378daa952ba7f163c4a11628f55a4df523b3ef9281900390910190a35050565b60008282018381101562000195576040805162461bcd60e51b815260206004820152601b60248201527f536166654d6174683a206164646974696f6e206f766572666c6f770000000000604482015290519081900360640190fd5b828054600181600116156101000203166002900490600052602060002090601f016020900481019282601f106200034257805160ff191683800117855562000372565b8280016001018555821562000372579182015b828111156200037257825182559160200191906001019062000355565b506200038092915062000384565b5090565b620001a091905b808211156200038057600081556001016200038b565b610e6080620003b16000396000f3fe608060405234801561001057600080fd5b506004361061012c5760003560e01c80636ebcf607116100ad57806398fd3f581161007157806398fd3f5814610364578063a457c2d714610392578063a9059cbb146103be578063d2bd03b2146103ea578063dd62ed3e146103f25761012c565b80636ebcf607146102e45780636f3092911461030a57806370a082311461032e578063931ad5091461035457806395d89b411461035c5761012c565b80631ba6b604116100f45780631ba6b6041461025457806323b872dd1461025c578063313ce5671461029257806339509351146102b05780633eaaf86b146102dc5761012c565b8063024c2ddd146101315780630491d81f1461017157806306fdde0314610197578063095ea7b31461021457806318160ddd14610254575b600080fd5b61015f6004803603604081101561014757600080fd5b506001600160a01b0381358116916020013516610420565b60408051918252519081900360200190f35b61015f6004803603602081101561018757600080fd5b50356001600160a01b031661043d565b61019f61044e565b6040805160208082528351818301528351919283929083019185019080838360005b838110156101d95781810151838201526020016101c1565b50505050905090810190601f1680156102065780820380516001836020036101000a031916815260200191505b509250505060405180910390f35b6102406004803603604081101561022a57600080fd5b506001600160a01b0381351690602001356104e4565b604080519115158252519081900360200190f35b61015f610501565b6102406004803603606081101561027257600080fd5b506001600160a01b03813581169160208101359091169060400135610507565b61029a610594565b6040805160ff9092168252519081900360200190f35b610240600480360360408110156102c657600080fd5b506001600160a01b03813516906020013561059d565b61015f6105f1565b61015f600480360360208110156102fa57600080fd5b50356001600160a01b03166105f7565b610312610609565b604080516001600160a01b039092168252519081900360200190f35b61015f6004803603602081101561034457600080fd5b50356001600160a01b0316610618565b61015f610633565b61019f610639565b6103906004803603604081101561037a57600080fd5b506001600160a01b03813516906020013561069a565b005b610240600480360360408110156103a857600080fd5b506001600160a01b038135169060200135610756565b610240600480360360408110156103d457600080fd5b506001600160a01b0381351690602001356107c4565b61015f6107d8565b61015f6004803603604081101561040857600080fd5b506001600160a01b03813581169160200135166107de565b600160209081526000928352604080842090915290825290205481565b600061044882610618565b92915050565b60038054604080516020601f60026000196101006001881615020190951694909404938401819004810282018101909252828152606093909290918301828280156104da5780601f106104af576101008083540402835291602001916104da565b820191906000526020600020905b8154815290600101906020018083116104bd57829003601f168201915b5050505050905090565b60006104f86104f1610809565b848461080d565b50600192915050565b60025490565b60006105148484846108f9565b61058a84610520610809565b61058585604051806060016040528060288152602001610d5e602891396001600160a01b038a1660009081526001602052604081209061055e610809565b6001600160a01b03168152602081019190915260400160002054919063ffffffff610a5516565b61080d565b5060019392505050565b60065460ff1690565b60006104f86105aa610809565b8461058585600160006105bb610809565b6001600160a01b03908116825260208083019390935260409182016000908120918c16815292529020549063ffffffff610aec16565b60025481565b60006020819052908152604090205481565b6004546001600160a01b031681565b6001600160a01b031660009081526020819052604090205490565b60075490565b60058054604080516020601f60026000196101006001881615020190951694909404938401819004810282018101909252828152606093909290918301828280156104da5780601f106104af576101008083540402835291602001916104da565b6106a2610809565b6004546001600160a01b039081169116146106ee5760405162461bcd60e51b8152600401808060200182810382526038815260200180610dcf6038913960400191505060405180910390fd5b6007548160025401106107325760405162461bcd60e51b815260040180806020018281038252603b815260200180610cdc603b913960400191505060405180910390fd5b61073c8282610b4d565b60085461074f908263ffffffff610aec16565b6008555050565b60006104f8610763610809565b8461058585604051806060016040528060258152602001610e07602591396001600061078d610809565b6001600160a01b03908116825260208083019390935260409182016000908120918d1681529252902054919063ffffffff610a5516565b60006104f86107d1610809565b84846108f9565b60085490565b6001600160a01b03918216600090815260016020908152604080832093909416825291909152205490565b3390565b6001600160a01b0383166108525760405162461bcd60e51b8152600401808060200182810382526024815260200180610dab6024913960400191505060405180910390fd5b6001600160a01b0382166108975760405162461bcd60e51b8152600401808060200182810382526022815260200180610cba6022913960400191505060405180910390fd5b6001600160a01b03808416600081815260016020908152604080832094871680845294825291829020859055815185815291517f8c5be1e5ebec7d5bd14f71427d1e84f3dd0314c0f7b2291e5b200ac8c7c3b9259281900390910190a3505050565b6001600160a01b03831661093e5760405162461bcd60e51b8152600401808060200182810382526025815260200180610d866025913960400191505060405180910390fd5b6001600160a01b0382166109835760405162461bcd60e51b8152600401808060200182810382526023815260200180610c976023913960400191505060405180910390fd5b6109c681604051806060016040528060268152602001610d17602691396001600160a01b038616600090815260208190526040902054919063ffffffff610a5516565b6001600160a01b0380851660009081526020819052604080822093909355908416815220546109fb908263ffffffff610aec16565b6001600160a01b038084166000818152602081815260409182902094909455805185815290519193928716927fddf252ad1be2c89b69c2b068fc378daa952ba7f163c4a11628f55a4df523b3ef92918290030190a3505050565b60008184841115610ae45760405162461bcd60e51b81526004018080602001828103825283818151815260200191508051906020019080838360005b83811015610aa9578181015183820152602001610a91565b50505050905090810190601f168015610ad65780820380516001836020036101000a031916815260200191505b509250505060405180910390fd5b505050900390565b600082820183811015610b46576040805162461bcd60e51b815260206004820152601b60248201527f536166654d6174683a206164646974696f6e206f766572666c6f770000000000604482015290519081900360640190fd5b9392505050565b6001600160a01b038216610ba8576040805162461bcd60e51b815260206004820152601f60248201527f45524332303a206d696e7420746f20746865207a65726f206164647265737300604482015290519081900360640190fd5b600254610bbb908263ffffffff610aec16565b6002556001600160a01b038216600090815260208190526040902054610be7908263ffffffff610aec16565b6001600160a01b0383166000818152602081815260408083209490945583518581529351929391927fddf252ad1be2c89b69c2b068fc378daa952ba7f163c4a11628f55a4df523b3ef9281900390910190a35050565b600082610c4c57506000610448565b82820282848281610c5957fe5b0414610b465760405162461bcd60e51b8152600401808060200182810382526021815260200180610d3d6021913960400191505060405180910390fdfe45524332303a207472616e7366657220746f20746865207a65726f206164647265737345524332303a20617070726f766520746f20746865207a65726f2061646472657373535445414d20746f6b656e3a2063616e6e6f742067656e6572617465206d6f726520737465616d207468616e20746865206d617820737570706c7945524332303a207472616e7366657220616d6f756e7420657863656564732062616c616e6365536166654d6174683a206d756c7469706c69636174696f6e206f766572666c6f7745524332303a207472616e7366657220616d6f756e74206578636565647320616c6c6f77616e636545524332303a207472616e736665722066726f6d20746865207a65726f206164647265737345524332303a20617070726f76652066726f6d20746865207a65726f20616464726573736f6e6c795550533a204f6e6c792074686520555053746b6e20636f6e7472616374206d61792063616c6c20746869732066756e6374696f6e45524332303a2064656372656173656420616c6c6f77616e63652062656c6f77207a65726fa265627a7a72315820ad8fe03ac9423bfeb5bac2d521a9370f1d824244b21bac23775f3d7eb244bc4464736f6c63430005100032536166654d6174683a206d756c7469706c69636174696f6e206f766572666c6f77536166654d6174683a206d756c7469706c69636174696f6e206f766572666c6f77",
  "source": "//SPDX-Licence-Identifier: 2guys\n\n//======================================================================================================\n\n\npragma solidity ^0.5.16;\n\nimport \"./Steam.sol\";\nimport \"./ERC20.sol\";\n\ninterface IUNIv2 {\n    function sync() external;\n}\n\ncontract UpSwing is ERC20 {\n\n    using SafeMath for uint256;\n\n    address private UNIv2;\n    address private Treasury;\n    \n    mapping(address => bool) public allowed;\n    modifier onlyAllowed() {\n        require(allowed[_msgSender()], \"onlyAllowed\");\n        _;\n    }\n\n\n    string private _name;\n    string private _symbol;\n    uint8 private _decimals;\n\n    uint256 private _UPSBurned = 0;\n    \n    uint8 public leverage;\n    mapping(address => uint256) sellPressure;\n    mapping(address => uint256) steamToGenerate;\n    mapping(address => uint256) txCount;\n    \n    address _STEAM;\n\n    event BurnedFromLiquidityPool(address burnerAddress, uint amount);\n    event SteamGenerated(address steamRecipientddress, uint amount);\n\n    constructor(uint256 UPS_totalSupply) public {\n        _name = \"UpSwing\"; \n        _symbol = \"UPS\";\n        _decimals = 18;\n        ERC20._mint(_msgSender(), UPS_totalSupply.mul(1e18)); //uses \"normal\" numbers\n\n        leverage = 90;\n        Treasury = msg.sender;\n        \n        _STEAM = address(new Steam(UPS_totalSupply)); //creates steam token\n        allowed[_msgSender()] = true;\n    }\n    \n    \n    modifier canSteam(address _address){\n        require(steamToGenerate[_address] > 0, \"no Steam to generate\");\n        _;\n    }\n    \n    /*  //STEAM function called below:\n    \n        function generateSteam(address account, uint256 amount) external onlyAllowed {\n        require((_totalSupply + amount) < _maxSupply, \"STEAM token: cannot generate more steam than the max supply\");\n        ERC20._mint(account, amount);\n        _steamMinted = _steamMinted.add(amount);\n    }\n    */\n    \n    function _generateSteamFromUPSBurn(address _address) internal canSteam(_address){\n        uint256 _steam = steamToGenerate[_address];\n        steamToGenerate[_address] = 0;\n        Steam(_STEAM).generateSteam(_address, _steam);\n    }   \n    \n    function addToSteam(address _address, uint256 _amount) internal {\n        steamToGenerate[_address] = steamToGenerate[_address].add(_amount);\n    }  \n    \n    function amountPressure(uint256 amount) internal view returns(uint256){ \n        uint256 UNI_SupplyRatio = (getUNIV2Liq().mul(1e18)).div(totalSupply());\n        UNI_SupplyRatio = UNI_SupplyRatio.mul(leverage).div(100);\n\n        return amount.mul(UNI_SupplyRatio).div(1e18);\n    }\n\n\n\n    function setUNIv2(address _address) public onlyAllowed {\n        UNIv2 = _address;\n    }\n    \n    function setTreasury(address _address) public onlyAllowed {\n        Treasury = _address;\n    }\n\n    function setLeverage(uint8 _leverage) public onlyAllowed {\n        require(_leverage <= 100 && _leverage >= 0);\n        leverage = _leverage;\n    }\n\n    function myPressure(address _address) public view returns(uint256){\n        return amountPressure(sellPressure[_address]);\n    }\n    \n    function releasePressure(address _address) internal {\n        uint256 amount = myPressure(_address);\n        \n        if(amount < balanceOf(UNIv2)) {\n            require(_totalSupply.sub(amount) >= _totalSupply.div(1000), \"There is less than 0.1% of the Total Supply remaining, unfortunately, kabooming is over\");\n            \n            sellPressure[_address] = 0;\n            addToSteam(_address, amount);\n            \n            ERC20._burn(UNIv2, amount);\n\n            _UPSBurned = _UPSBurned.add(amount);\n            emit BurnedFromLiquidityPool(_address, amount);\n            \n            _generateSteamFromUPSBurn(_address);\n            emit SteamGenerated(_address, amount);\n            \n            txCount[_address] = 0;\n        } else if (amount > 0) {\n            sellPressure[_address] = sellPressure[_address].div(2);\n        }\n        \n        \n       IUNIv2(UNIv2).sync();\n    }\n    \n    function UPSMath(uint256 n) internal pure returns(uint256){\n        uint _t = n*n + 1;\n        _t =  1e10/(_t);\n        return (92*_t)/100;\n        \n    }\n    \n    function _transfer(address sender, address recipient, uint256 amount) internal {\n        require(sender != address(0), \"ERC20: transfer from the zero address\");\n        require(recipient != address(0), \"ERC20: transfer to the zero address\");\n    \n        ERC20._balances[sender] = ERC20._balances[sender].sub(amount, \"ERC20: transfer amount exceeds balance\");\n        ERC20._balances[recipient] = ERC20._balances[recipient].add(amount);\n    \n            if(recipient == UNIv2){ \n                txCount[sender] = txCount[sender]+1;\n                amount = amount.mul(UPSMath(txCount[sender])).div(1e10);\n                sellPressure[sender] = sellPressure[sender].add(amount);\n            }\n    \n            if(sender == recipient && amount == 0){releasePressure(sender);}\n    \n        emit Transfer(sender, recipient, amount);\n    }\n    \n    function mySteam(address _address) public view returns(uint256){\n        return steamToGenerate[_address];\n    }\n    \n    function getUNIV2Address() public view returns (address) {\n        return UNIv2;\n    }\n    \n    function getUNIV2Liq() public view returns (uint256) {\n        return uint256(balanceOf(UNIv2));\n    }\n    \n    function getUPSTotalSupply() public view returns(uint256){\n        return _totalSupply;\n    }\n    \n    function getUPSBurned() public view returns(uint256){\n        return _UPSBurned;\n    }\n    \n    function name() public view returns (string memory) {\n        return _name;\n    }\n\n    function symbol() public view returns (string memory) {\n        return _symbol;\n    }\n\n    function decimals() public view returns (uint8) {\n        return _decimals;\n    }\n\n    function totalSupply() public view returns (uint256) {\n        return ERC20._totalSupply;\n    }\n\n}",
  "sourcePath": "/home/abhi/Projects/swingAudit/contracts/UpsSwing.sol",
  "compiler": {
    "name": "solc",
    "version": "0.5.16+commit.9c3226ce.Emscripten.clang"
  },
  "schemaVersion": "3.2.4",
  "updatedAt": "2020-09-21T18:44:07.850Z",
  "devdoc": {
    "methods": {
      "allowance(address,address)": {
        "details": "See {IERC20-allowance}."
      },
      "approve(address,uint256)": {
        "details": "See {IERC20-approve}.     * Requirements:     * - `spender` cannot be the zero address."
      },
      "balanceOf(address)": {
        "details": "See {IERC20-balanceOf}."
      },
      "decreaseAllowance(address,uint256)": {
        "details": "Atomically decreases the allowance granted to `spender` by the caller.     * This is an alternative to {approve} that can be used as a mitigation for problems described in {IERC20-approve}.     * Emits an {Approval} event indicating the updated allowance.     * Requirements:     * - `spender` cannot be the zero address. - `spender` must have allowance for the caller of at least `subtractedValue`."
      },
      "increaseAllowance(address,uint256)": {
        "details": "Atomically increases the allowance granted to `spender` by the caller.     * This is an alternative to {approve} that can be used as a mitigation for problems described in {IERC20-approve}.     * Emits an {Approval} event indicating the updated allowance.     * Requirements:     * - `spender` cannot be the zero address."
      },
      "transfer(address,uint256)": {
        "details": "See {IERC20-transfer}.     * Requirements:     * - `recipient` cannot be the zero address. - the caller must have a balance of at least `amount`."
      },
      "transferFrom(address,address,uint256)": {
        "details": "See {IERC20-transferFrom}.     * Emits an {Approval} event indicating the updated allowance. This is not required by the EIP. See the note at the beginning of {ERC20};     * Requirements: - `sender` and `recipient` cannot be the zero address. - `sender` must have a balance of at least `amount`. - the caller must have allowance for `sender`'s tokens of at least `amount`."
      }
    }
  },
  "userdoc": {
    "methods": {}
  }
}